:040000000BEF00F012
:100008004A82FACF08F0FBCF09F080ED10F07BEFC1
:0200180012F0E4
:100800000001000A006400E803102754454D502001
:100810004F4E3A2532647320202020200054454D4D
:1008200050204F46463A2532647320202020004154
:10083000204155544F20202020202020202020001F
:1008400042204D414E55414C202020202020202088
:1008500000432054454D50204F4E20202020202082
:100860002000432054454D50204F46462020202054
:10087000202000434F4E54524F4C204F4E202020FA
:1008800020202000434F4E54524F4C204F464620CC
:1008900020202020004420444553414354495641E0
:1008A000522020202000434F4E54524F4C204D41A7
:1008B0004E55414C202000253364256320002563DC
:1008C00000000F0EC16E140E166E000E176E520E43
:1008D00067EC0CF0000E946EF00E936EF28AF294B8
:1008E000B30ED76EB50ED66ED58ED59CD59AD5964D
:1008F000D584D582D580F19EF286F290F28E000EDC
:100900000001A06F320E9F6F000E0001A26F000E5B
:10091000A16F000E0001946F000E936F000E000196
:100920009E6F000E9D6F000E00019C6F000E9B6F6E
:10093000000E0001966F000E956F000E0001906F83
:10094000000E0001916F000E0001926F100E166EE6
:100950009B0E93EC12F019EC11F0000E00016C6F7D
:10096000000E6B6F91EC11F0000E816E000E186E90
:10097000000EA8EC12F06E0E226E000E236E840E96
:10098000246E080E256EFEEC0AF06E0E176E000E39
:10099000186E62EC12F00001A4BF08D00001A4514F
:1009A0001AE1020E0001A35DD8B015D0000E186E3A
:1009B000010EA8EC12F07E0E226E000E236E2F0E9A
:1009C000246E080E256EFEEC0AF07E0E176E000EE9
:1009D000186E62EC12F00001A4BF28D00001A451EF
:1009E00005E1020E0001A35DD8A020D00001A4BF44
:1009F00008D00001A4511AE1040E0001A35DD8B093
:100A000015D0000E186E010EA8EC12F07E0E226EAC
:100A1000000E236E400E246E080E256EFEEC0AF0CA
:100A20007E0E176E000E186E62EC12F00001A4BF6D
:100A300034D00001A45105E1040E0001A35DD8A04B
:100A40002CD00001A4BF08D00001A45126E1060E5D
:100A50000001A35DD8B021D0000E186E010EA8ECE5
:100A600012F07E0E226E000E236E510E246E080EC2
:100A7000256EFEEC0AF07E0E176E000E186E62EC0C
:100A800012F0050E0001A3190001A411D8A405D08D
:100A9000000E0001A46F000EA36F0C0E4818491041
:100AA000D8A40BD1D59E000E00019A6F996999C008
:100AB00048F09AC049F0000E0001A26F000EA16F2D
:100AC000A1C093F0A2C094F0000E186E010EA8EC25
:100AD00012F07E0E226E000E236E0B0E246E080E98
:100AE000256E9BC026F09CC027F0FEEC0AF07E0E1F
:100AF000176E000E186E62EC12F0090E186E010EE1
:100B0000A8EC12F0000E186E0D0E00EC13F0C30EE0
:100B100000016D6FCD0EE82EFED76D2FFCD700F0D3
:100B2000000E186E0C0E00EC13F000019D51000138
:100B30009E11D8B449BE16D049BE06D0495012E124
:100B40000A0E485CD8B00ED048C0A1F049C0A2F04F
:100B5000A1C09BF0A2C09CF0000E496E4868000145
:100B60009D4B9E2B00019D0500019E11D8A439D0FC
:100B70000001A2BF08D00001A25133E1060E00011E
:100B8000A15DD8B02ED049BE2CD049BE06D0495068
:100B900028E10A0E485CD8B024D0A1C093F0A2C0CE
:100BA00094F048C0A1F049C0A2F093C016F094C0E0
:100BB00017F0000E196E0A0E186EBCEC12F0000150
:100BC000A151162400019B6F0001A25117200001C2
:100BD0009C6F000E496E4868000E00019E6F000E6B
:100BE0009D6F00019D0500019E11D8A42FD0060E17
:100BF0000001A1190001A211D8A428D04850491021
:100C0000D8A424D0A1C093F0A2C094F048C0A1F011
:100C100049C0A2F093C016F094C017F0000E196EF0
:100C20000A0E186EBCEC12F00001A151162400014E
:100C30009B6F0001A251172000019C6F000E496EAE
:100C40004868000E00019E6F000E9D6F0C0E481844
:100C50004910D8A413D09BC0A5F09CC0A6F0000EEC
:100C600000019C6F000E9B6FD58E000E00019A6FE5
:100C70000D0E996F000E496E100E486E0F0E48183B
:100C80004910D8A413D0000E00019C6F000E9B6F7A
:100C9000D58E000E00019A6F0D0E996F000E496EF1
:100CA0004868000E0001A46F000EA36F0D0E000136
:100CB000991900019A11D8A407D7100E48184910A5
:100CC000D8A428D0000E186E010EA8EC12F07E0EEB
:100CD000226E000E236E0B0E246E080E256EA5C02C
:100CE00026F0A6C027F0FEEC0AF07E0E176E000E6E
:100CF000186E62EC12F00001A5510001A611D8A4F3
:100D0000E1D7000E496E0A0E486E000E0001A46F76
:100D1000000EA36F0A0E48184910D8A436D3000E4F
:100D200000019A6F996999C048F09AC049F007ECA0
:100D300013F0000EE9EC11F016C097F017C098F010
:100D4000000198BF12D09E0E0001975D0F0E0001AA
:100D50009859D8A00AD0000E0001906FC80E00016B
:100D6000916F420E0001926F28D0F00E256E7F0E1B
:100D7000266E450E276E97C01EF098C01FF02CEC13
:100D800012F01EC022F01FC023F020C024F0B6ECE9
:100D90000FF022C031F023C032F024C033F0000E37
:100DA000346EC80E356E420E366E3CEC0FF031C01C
:100DB00090F032C091F033C092F0000E216EC80E58
:100DC000226E420E236E90C016F091C017F092C0B2
:100DD00018F0CFEC12F016C01EF017C01FF018C0AC
:100DE00020F044EC0DF01EC040F01FC041F020C0C8
:100DF00042F01AEC0EF040C08EF041C08FF08EC071
:100E00006BF08FC06CF091EC11F0000E186E000EBC
:100E1000A8EC12F06E0E226E000E236E730E246E7E
:100E2000080E256EFEEC0AF06E0E176E000E186EA0
:100E300062EC12F00001A4BF08D00001A4511AE135
:100E4000020E0001A35DD8B015D0000E186E010E81
:100E5000A8EC12F07E0E226E000E236E950E246E0C
:100E6000080E256EFEEC0AF07E0E176E000E186E50
:100E700062EC12F00001A4BF28D00001A45105E1EA
:100E8000020E0001A35DD8A020D00001A4BF08D0AD
:100E90000001A4511AE1040E0001A35DD8B015D0E1
:100EA000000E186E010EA8EC12F07E0E226E000EDF
:100EB000236E400E246E080E256EFEEC0AF07E0EA8
:100EC000176E000E186E62EC12F00001A4BF34D051
:100ED0000001A45105E1040E0001A35DD8A02CD0AF
:100EE0000001A4BF08D00001A45126E1060E0001B4
:100EF000A35DD8B021D0000E186E010EA8EC12F040
:100F00007E0E226E000E236E620E246E080E256E7B
:100F1000FEEC0AF07E0E176E000E186E62EC12F0F8
:100F2000050E0001A3190001A411D8A405D0000EDC
:100F30000001A46F000EA36F0C0E48184910D8A42E
:100F400071D1D59E000E496E4868000E0001A26F57
:100F5000000EA16FA1C093F0A2C094F0000EE9ECC6
:100F600011F016C097F017C098F0000198BF12D08A
:100F70009E0E0001975D0F0E00019859D8A00AD06F
:100F8000000E0001906FC80E0001916F420E00012B
:100F9000926F28D0F00E256E7F0E266E450E276EBE
:100FA00097C01EF098C01FF02CEC12F01EC022F06B
:100FB0001FC023F020C024F0B6EC0FF022C031F0A7
:100FC00023C032F024C033F0000E346EC80E356EEC
:100FD000420E366E3CEC0FF031C090F032C091F012
:100FE00033C092F0000E216EC80E226E420E236EA8
:100FF00090C016F091C017F092C018F0CFEC12F02C
:1010000016C01EF017C01FF018C020F044EC0DF001
:101010001EC040F01FC041F020C042F01AEC0EF09C
:1010200040C08EF041C08FF08EC06BF08FC06CF06E
:1010300091EC11F0000E186E010EA8EC12F07E0E6D
:10104000226E000E236E1D0E246E080E256E9BC0B0
:1010500026F09CC027F0FEEC0AF07E0E176E000E04
:10106000186E62EC12F00A0E186E010EA8EC12F067
:10107000000E186E0D0E00EC13F0C30E00016D6F24
:10108000CD0EE82EFED76D2FFCD700F0000E186EA7
:101090000C0E00EC13F000019D5100019E11D8B41C
:1010A00049BE16D049BE06D0495012E10A0E485C2E
:1010B000D8B00ED048C0A1F049C0A2F0A1C09BF0AA
:1010C000A2C09CF0000E496E486800019D4B9E2B0B
:1010D00000019D0500019E11D8A439D00001A2BFD6
:1010E00008D00001A25133E1060E0001A15DD8B085
:1010F0002ED049BE2CD049BE06D0495028E10A0E58
:10110000485CD8B024D0A1C093F0A2C094F048C0ED
:10111000A1F049C0A2F093C016F094C017F0000EE1
:10112000196E0A0E186EBCEC12F00001A1511624C3
:1011300000019B6F0001A251172000019C6F000E5F
:10114000496E4868000E00019E6F000E9D6F000101
:101150009D0500019E11D8A42FD0060E0001A119F3
:101160000001A211D8A428D048504910D8A424D0F6
:10117000A1C093F0A2C094F048C0A1F049C0A2F071
:1011800093C016F094C017F0000E196E0A0E186E78
:10119000BCEC12F00001A151162400019B6F00016C
:1011A000A251172000019C6F000E496E4868000E86
:1011B00000019E6F000E9D6F0C0E48184910D8A4B8
:1011C00013D09BC0A5F09CC0A6F0000E00019C6F40
:1011D000000E9B6FD58E000E00019A6F0D0E996F59
:1011E000000E496E100E486E0F0E48184910D8A414
:1011F0000ED0000E00019C6F000E9B6FD58E000E6E
:1012000000019A6F0D0E996F000E496E48680D0E21
:101210000001991900019A11D8A4A0D6000E00016E
:101220009A6F9969100E48184910D8A498D0000EEA
:10123000186E010EA8EC12F07E0E226E000E236EC8
:101240001D0E246E080E256EA5C026F0A6C027F040
:10125000FEEC0AF07E0E176E000E186E62EC12F0B5
:10126000000EE9EC11F016C097F017C098F00001DD
:1012700098BF12D09E0E0001975D0F0E0001985985
:10128000D8A00AD0000E0001906FC80E0001916F27
:10129000420E0001926F28D0F00E256E7F0E266E52
:1012A000450E276E97C01EF098C01FF02CEC12F070
:1012B0001EC022F01FC023F020C024F0B6EC0FF0B7
:1012C00022C031F023C032F024C033F0000E346E5F
:1012D000C80E356E420E366E3CEC0FF031C090F009
:1012E00032C091F033C092F0000E216EC80E226E13
:1012F000420E236E90C016F091C017F092C018F005
:10130000CFEC12F016C01EF017C01FF018C020F06E
:1013100044EC0DF01EC040F01FC041F020C042F070
:101320001AEC0EF040C08EF041C08FF08EC06BF012
:101330008FC06CF091EC11F00001A5510001A611D5
:10134000D8A475D7000E496E4868000E00019A6F48
:101350000D0E996F000E0001A46F000EA36F0B0E0F
:1013600048184910D8B405D00D0E48184910D8A413
:1013700005D0000E00019A6F0D0E996F0D0E000141
:10138000991900019A11D8A4D4D40B0E4818491009
:10139000D8A4ADEF04F0000E00019A6F996999C0CE
:1013A00048F09AC049F007EC13F09FC06BF0A0C062
:1013B0006CF091EC11F0000E186E000EA8EC12F01B
:1013C0006E0E226E000E236EA60E246E080E256E83
:1013D000FEEC0AF06E0E176E000E186E62EC12F044
:1013E0009FC016F0A0C017F0000E196E0A0E186EFE
:1013F00059EC11F016501710D8A433D09FC016F036
:10140000A0C017F0000E196E0A0E186ED7EC10F07F
:1014100016500001955D00019651800A00016D6F24
:101420001750800A00016D59D8B01BD095C018F034
:10143000010EA8EC12F07E0E226E000E236EBE0E80
:10144000246E080E256E000E276E2668FEEC0AF04C
:101450007E0E176E000E186E62EC12F00001954BB6
:10146000962B9FC016F0A0C017F0000E196E0A0E42
:10147000186E59EC11F016501710D8A43FD09FC029
:1014800016F0A0C017F0000E196E0A0E186ED7ECF9
:1014900010F016500001955D00019651800A000180
:1014A0006D6F1750800A00016D59D8A027D0000138
:1014B00096BF08D00001965121E10A0E0001955D0A
:1014C000D8B01CD095C018F0010EA8EC12F07E0E1A
:1014D000226E000E236EBE0E246E080E256E000EC8
:1014E000276EDB0E266EFEEC0AF07E0E176E000EE7
:1014F000186E62EC12F00001954B962B0B0E186ED5
:10150000010EA8EC12F07E0E226E000E236EB70EB6
:10151000246E080E256E9FC026F0A0C027F0000E96
:10152000296E250E286EFEEC0AF07E0E176E000E58
:10153000186E62EC12F00E0E48184910D8A41AD09A
:10154000FB0E00019F2500019F6FFF0E0001A021EF
:101550000001A06F0001A0AF05D0000E0001A06F38
:10156000000E9F6F000E0001966F000E956F000E2B
:10157000496E48680F0E48184910D8A422D0050EAD
:1015800000019F2500019F6F000E0001A0210001B6
:10159000A06F0001A0BF0DD00001A05105E1650EB4
:1015A00000019F5DD8A005D0000E0001A06F640E61
:1015B0009F6F000E0001966F000E956F000E496E32
:1015C00048680D0E48184910D8B405D00A0E4818BE
:1015D0004910D8A405D0000E00019A6F0D0E996F26
:1015E0000D0E0001991900019A11D8A4DED6000E43
:1015F0000001A46F000EA36FADEF04F0260E316E54
:10160000000E326E51D1250E3A18D8B409D022C03E
:10161000D9FF23C0DAFF3AC0DFFF224A232A44D190
:10162000000E396E000E386E000E336E24C0F6FFC9
:1016300025C0F7FF0800F550F1EC12F0D8A07ED0DD
:10164000000E396E000E386E38C016F039C017F033
:10165000000E196E0A0E186EBCEC12F016C038F0AF
:1016600017C039F0D00E2A6EFF0E2B6E24C0F6FF85
:1016700025C0F7FF0800F5502C6E2D6A2A502C2645
:101680002B502D222C5038262D503922244A252A21
:1016900024C0F6FF25C0F7FF0800F550F1EC12F06A
:1016A000D8A04CD0D1D73850345C39503558D8B048
:1016B00005D03450385E3550395A0DD0000E396E91
:1016C000000E386E08D022C0D9FF23C0DAFF200EEA
:1016D000DF6E224A232A3806D8A039063828F3E1DB
:1016E0003928D8B40FD0EFD72EC0D9FF2FC0DAFFDA
:1016F00022C0E1FF23C0E2FFDFCFE7FF2E4A2F2AFF
:10170000224A232A3406D8A035063428EDE13528AC
:10171000D8B4CAD0E9D731C0D9FF32C0DAFFDF5020
:101720003A6E020E3126000E32223A0E2E6E000E56
:101730002F6E000E356E010E346EB5D724C0F6FF45
:1017400025C0F7FF244A252A0800F5CF3AF03A5081
:10175000000AD8B4B5D0630AD8B4DDD7070AD8B424
:1017600003D00D0AD8A4E1D731C0D9FF32C0DAFFC7
:10177000DECF36F0DDCF37F0020E3126000E3222FA
:1017800037AE06D0030E3312366C371ED8B0372A68
:10179000010E3A6E050E3A18D8B412D03A50020D26
:1017A000010EF324F66E080EF420F76E0900F550D2
:1017B000365C0900F5503758D8A002D03A2AEAD74B
:1017C00038503910D8B409D033C02AF0030E2A1685
:1017D000D8B403D03806D8A03906800E3ABE7F0EA2
:1017E0002A6E38503A5C3950800A2A58D8B007D04F
:1017F0003A50385E000E3ABEFF0E395A04D0000E41
:10180000396E000E386E38503910D8B40FD022C05F
:10181000D9FF23C0DAFF200EDF6E224A232A3806C2
:10182000D8A0390638503910D8A4F1D733C02AF0DF
:10183000030E2A16D8B408D022C0D9FF23C0DAFF7D
:101840002D0EDF6E224A232A3AC030F029D03050C4
:10185000020D010EF324F66E080EF420F76E090057
:10186000F5CF18F00A00F5CF19F036C016F037C0E2
:1018700017F0C0EC11F016C01DF017C01EF0000EDE
:10188000206E0A0E1F6E0BEC12F01D50300F3A6ED8
:1018900022C0D9FF23C0DAFF3AC0DFFF224A232A41
:1018A00030063028D8A4D3D724C0F6FF25C0F7FFD0
:1018B000244A252A0800F5CF3AF03A50D8A4A3D6F6
:1018C00022C0D9FF23C0DAFF000EDF6E12001C6EAB
:1018D000000EC06E000EC16E000EC26E4C0E1C18C3
:1018E000D8A402D0C09E1AD0520E1C18D8A416D06C
:1018F000C08E14D0C06EA8D0C0500509FBD7C05010
:101900000409F8D7C0500209F5D7C0500109F2D731
:10191000C0CFC0FF99D0C0500609ECD7000E186E9A
:101920002D0E196E310E1A6E010E1B6E1B50000A21
:10193000D8B44DD0010AD8B45BD0030AD8B463D070
:10194000EAD71950250AD8A4E6D71850A00AD8B467
:10195000DFD7E1D719504B0AD8A4DDD71850400A79
:10196000D8B4CDD7D8D71950C60AD8A4D4D71850D0
:10197000B00AD8B4CAD7CFD71950960AD8A4CBD7B3
:101980001850800AF6D71950240AD8A4C4D703D017
:1019900019502D0AFAD71850000AD8B4ADD7BBD7C2
:1019A0001950360A0AD01950480A07D01850000AB0
:1019B000D8B4A8D7B0D719505A0AD8A4ACD7F6D7FC
:1019C00019506C0AD8A4A7D71850000AA4D71A50E7
:1019D000260AD8B4B6D76A0AD8B4BCD7290AD8B46C
:1019E000C2D7FD0AD8B4C8D76C0AD8B4CCD793D71D
:1019F0001A50310AD8B4CCD75F0AD8B4D1D7860AE6
:101A0000D8B4D1D788D71A50620AD8B4D4D7BE0A6E
:101A1000D8B4D6D780D7C050300914D0C0502809C8
:101A200011D0C05020090ED0C05018090BD0C050A2
:101A3000100908D0C050080905D0C0CFC0FF1CD085
:101A4000C0503809C06E18D01650000AD8B4F5D767
:101A5000020AD8B4EFD7060AD8B4E9D7020AD8B434
:101A6000E3D70E0AD8B4DDD7040AD8B4D7D71C0AF6
:101A7000D8B4D1D7040AE4D7175000080E0FC16EAE
:101A8000010EC26E9E9C120020C024F0256A266AB8
:101A90001F34243601E325802450296E23C024F00E
:101AA000256A266A2234243601E325802450286ED4
:101AB0002950D8B40BD02850295CD8B00ED029506A
:101AC00000082824246E180E246407D021C01EF0BC
:101AD00022C01FF023C020F012002850D8B40BD031
:101AE0002950285CD8B00ED0285000082924246E34
:101AF000180E246407D01EC01EF01FC01FF020C0A7
:101B000020F01200060E276E20BE278E23BE278CE3
:101B10001F8EFF0E1E16FF0E1F16000E2016228EA1
:101B2000FF0E2116FF0E2216000E23162850295CE8
:101B3000D8B01BD0D890213622362336280629501B
:101B40002818D8B40DD0270627C024F0070E241675
:101B5000D8B406D0EFD7D89020321F321E32292AAF
:101B600028502918D8B41FD0F6D72950285CD8B0EF
:101B70001AD0D8901E361F3620362906295028182C
:101B8000D8B40DD0270627C024F0070E2416D8B4E9
:101B900006D0EFD7D890233222322132282A28507B
:101BA0002918D8A4F7D727AE0CD0FF0E1E1AFF0EA7
:101BB0001F1AFF0E201A010E1E26000E1F22000EF5
:101BC000202227AC0CD0FF0E211AFF0E221AFF0E86
:101BD000231A010E2126000E2222000E2322000EBF
:101BE000276E1E5021261F5022222050232223AE72
:101BF0000ED0FF0E211AFF0E221AFF0E231A010E1D
:101C00002126000E2222000E2322010E276E21C063
:101C100016F022C017F023C018F029C019F027C011
:101C20001AF029EC10F016C01EF017C01FF018C0F3
:101C300020F0120042C060F00001616B626B413421
:101C40000001603701E361810001605100016A6FAA
:101C500000016A51D8A409D0000E406E000E416EFA
:101C6000000E426E000E436E1200170E0001606FF0
:101C700040C061F041C062F042C063F000016029E1
:101C80000001646F05D00001D89063336233613383
:101C90000001642FF8D7000161510001656F418E8A
:101CA000FF0E4016FF0E4116000E42164050000176
:101CB000666F41500001676F42500001686F00017C
:101CC000696B8E0E00016A5F00016AAF19D00001D6
:101CD0006A51800A8F0FD8B009D0000E406E000EF6
:101CE000416E000E426E000E436E12000001D8904D
:101CF000693368336733663300016A3FF7D71AD018
:101D0000170E00016A6511D0000E406E000E416E84
:101D1000000E426E000E436E12000001D89066372E
:101D200067376837693700016A0700016A510001A7
:101D3000D8A4F3D7000165510001D8B409D000013F
:101D4000691F681F671F666D000E6723682369237C
:101D500066C040F067C041F068C042F069C043F01F
:101D60001200000E076E06680E0E816E81B804D058
:101D7000000E076E010E066E81BA04D0000E076ECB
:101D8000020E066E81BC04D0000E076E030E066EB6
:101D900081BE04D0000E076E0A0E066E0D0E816E17
:101DA00081B804D0000E076E040E066E81BA04D00E
:101DB000000E076E050E066E81BC04D0000E076E85
:101DC000060E066E81BE04D0000E076E0B0E066E68
:101DD0000B0E816E81B804D0000E076E070E066EE2
:101DE00081BA04D0000E076E080E066E81BC04D0C6
:101DF000000E076E090E066E81BE04D0000E076E3F
:101E00000C0E066E070E816E81B804D0000E076EB0
:101E10000E0E066E81BA04D0000E076E000E066E1E
:101E200081BC04D0000E076E0F0E066E81BE04D07A
:101E3000000E076E0D0E066E06280710D8B417D0D8
:101E4000000E056E000E046E05BE06D02C0E045C5E
:101E5000010E0558D8B00BD0070E036E7D0EE82E8C
:101E6000FED7032EFCD700F0044A052AEDD706C0A2
:101E700001F007C002F0120033C037F0386A396A47
:101E80003234373601E3388037503A6E3A50D8A4AE
:101E900007D0000E316E000E326E000E336E12004F
:101EA00036C037F0386A396A3534373601E338805E
:101EB00037503F6E3F50D8A407D0000E316E000E51
:101EC000326E000E336E12003F507B0F3A2633C045
:101ED0003FF036503F1A800E3F16328E358EFF0E81
:101EE0003416FF0E3516000E3616000E3B6E000E31
:101EF0003C6E000E3D6E070E3E6E31A006D0345093
:101F00003B2635503C2236503D22D8903332323277
:101F10003132D8903436353636363E2EEED7090E6D
:101F20003E6E31A006D034503B2635503C22365010
:101F30003D22D890333232323132D8903D323C3269
:101F40003B323E2EEED73BC016F03CC017F03DC0F2
:101F500018F03AC019F03FC01AF029EC10F016C082
:101F600031F017C032F018C033F0120024C028F04E
:101F7000296A2A6A2334283601E3298028502F6EE3
:101F80002F50D8A407D0000E226E000E236E000E34
:101F9000246E120027C028F0296A2A6A26342836BF
:101FA00001E329802850306E3050D8A407D0000EAD
:101FB000226E000E236E000E246E1200000E2C6E98
:101FC000000E2D6E000E2E6E3050890F2F5E24C035
:101FD00030F02750301A800E3016238EFF0E221656
:101FE000FF0E2316000E2416268EFF0E2516FF0E5A
:101FF0002616000E2716180E2B6ED8902C362D366E
:102000002E362550225C2650235827502458D8A01D
:1020100007D02550225E2650235A2750245A2C8060
:10202000D8902236233624362B2EE7D72CC016F034
:102030002DC017F02EC018F02FC019F030C01AF0C4
:1020400029EC10F016C022F017C023F018C024F0BD
:1020500012001950D8B405D0165017101810D8A473
:102060000CD0000E166E000E176E000E186E1200C9
:10207000192AD890183217321632000E16141B6E19
:10208000000E17141C6EFE0E18141D6E1B501C1033
:102090001D10D8B40CD0ECD7192A010E1626000E4C
:1020A0001722000E1822D890183217321632000E5E
:1020B00016141B6E000E17141C6EFF0E18141D6EE6
:1020C0001B501C101D10D8B406D0E6D71906D890A6
:1020D00016361736183617BE03D0020E1960F6D71B
:1020E00019A0179ED8901932195018121A50D8A456
:1020F000188E16C016F017C017F018C018F012008E
:102100000600E9CF0AF0EACF0BF0E1CF0CF0E2CF06
:102110000DF0D9CF0EF0DACF0FF0F3CF10F0F4CFEF
:1021200011F0F6CF12F0F7CF13F0F8CF14F0F5CF8F
:1021300015F0F2A411D00001A34BA42B100E4818E7
:102140004910D8A404D00001A507D8A0A607B30E53
:10215000D76EB50ED66EF294F2A00BD0B1EC0EF0A5
:1021600001C048F002C049F081CF81FF000E816EAE
:10217000F29015C0F5FF14C0F8FF13C0F7FF12C0AE
:10218000F6FF11C0F4FF10C0F3FF0FC0DAFF0EC05E
:10219000D9FF0DC0E2FF0CC0E1FF0BC0EAFF0AC08F
:1021A000E9FF09C0FBFF08C0FAFF4A921100000EC8
:1021B0001B6E19AE06D0186C191ED8B0192A010E64
:1021C0001B6E17AE06D0166C171ED8B0172A010E5C
:1021D0001B1A000E1D6E000E1C6E18501910D8B47C
:1021E0001CD0010E1A6E04D0D890183619361A2A4F
:1021F00019AEFAD7D8901C361D361850165C1950F7
:102200001758D8A005D01850165E1950175A1C80C0
:10221000D890193218321A2EEDD71B50D8B404D0EA
:102220001C6C1D1ED8B01D2A1CC016F01DC017F056
:102230001200000E956E969096929694000E1A6E6D
:10224000000E196E1ABE06D01A500EE10A0E195C65
:10225000D8B00AD00D0E186EFC0EE82EFED7182E40
:10226000FCD7194A1A2AEED7300E48EC12F0210E8C
:10227000186E760EE82EFED7182EFCD700D0300E42
:1022800048EC12F0A60EE82EFED700D0300E48EC37
:1022900012F0380E48EC12F0080E48EC12F0010E65
:1022A00048EC12F0060E48EC12F00C0E48EC12F05E
:1022B0001200000E1B6E17AE06D0166C171ED8B09B
:1022C000172A010E1B6E19AE04D0186C191ED8B057
:1022D000192A18501910D8B418D0010E1A6E04D04B
:1022E000D890183619361A2A19AEFAD71850165C33
:1022F00019501758D8A004D01850165E1950175A04
:10230000D890193218321A2EF1D71B50D8B404D0F5
:10231000166C171ED8B0172A16C016F017C017F083
:102320001200AE0E346EC70E356E400E366E6BC0A8
:102330001EF06CC01FF02CEC12F01EC031F01FC05C
:1023400032F020C033F03CEC0FF031C040F032C02E
:1023500041F033C042F01AEC0EF040C046F041C0EC
:1023600047F046C044F047C045F0D890453244326B
:10237000D890453244324450BB6EBA8ABA9A1200A1
:10238000000E1B6E000E1A6E18501910D8B41CD017
:10239000010E1C6E04D0D890183619361C2A19AEBE
:1023A000FAD7D8901A361B361850165C19501758A1
:1023B000D8A005D01850165E1950175A1A80D89018
:1023C000193218321C2EEDD71AC016F01BC017F0A8
:1023D0001200186E000E1A6E000E196E000EC46EFA
:1023E000000EC36E1844E846FC0B0109C26E9E9CA9
:1023F000C282C2B2FED7C4CF19F01A6A19501A6E3F
:10240000196A1950C310196E1A501A6E19C016F0B5
:102410001AC017F012001F502010D8B418D0010EA7
:10242000216E04D0D8901F362036212A20AEFAD74C
:102430001F501D5C20501E58D8A004D01F501D5E98
:1024400020501E5AD89020321F32212EF1D71DC0A5
:102450001DF01EC01EF01200000E216E1FAE06D031
:102460001E6C1F1ED8B01F2A010E216E1EC016F052
:102470001FC017F0186A8E0E196E21C01AF029ECD1
:1024800010F016C01EF017C01FF018C020F0120088
:10249000176E17C083FF849484908482100EE82EF8
:1024A000FED700D08492040E176008D00D0E166E71
:1024B000FC0EE82EFED7162EFCD71200960EE82E44
:1024C000FED71200000E1A6E000E196E1ABE06D04C
:1024D0001A5010E1100E195CD8B0120019501724D0
:1024E000D96E1A501820DA6EDF50E1EC12F0194A5A
:1024F0001A2AECD712000001A66BA56BA46BA36B84
:10250000160EF66E260EF76E000EF86E0900F5CF69
:1025100048F00900F5CF49F04A904A92000EF86E53
:10252000000161EF04F0176E17C0CBFF000EBB6E09
:102530001604D8A402D0040E07D0040E1618D8A48E
:1025400002D0050E01D0060ECA6E0F0EBA6E120032
:10255000196E3F0E186402D03F0E186E1950D8A4A1
:1025600003D018C01AF003D0185040091A6E1A8E02
:102570001A5048EC12F0120016501802F3CF1AF05D
:10258000F4CF1BF016501902F3501B2617501802F7
:10259000F3501B261AC016F01BC017F0120016507D
:1025A00017101810D8B406D0000E161A000E171AFD
:1025B000800E181A16C016F017C017F018C018F0C1
:1025C0001200166E16C083FF849484808482100EDD
:1025D000E82EFED700D08492420EE82EFED700D01F
:1025E0001200186E000E176E3A0E186005D02F0EEE
:1025F000186402D0010E176E17C016F016301200C4
:10260000196E18501912195048EC12F01200010EF0
:0826100048EC12F01200FF007B
:020000040020DA
:08000000FFFFFFFFFFFFFFFF00
:020000040030CA
:0E000000240C2000FF0180FF0FC00FE00F4016
:00000001FF
